S0170000454550524F4D5F3128586D656761292E7372656372
S11300000C94FE000C941F010C941F010C941F010E
S11300100C941F010C941F010C941F010C941F01DC
S11300200C941F010C941F010C941F010C941F01CC
S11300300C94F9010C94CF010C941F010C941F0132
S11300400C941F010C941F010C941F010C941F01AC
S11300500C941F010C941F010C941F010C941F019C
S11300600C941F010C9423020C945F020C941F0146
S11300700C941F010C941F010C941F010C941F017C
S11300800C941F010C941F010C941F010C941F016C
S11300900C941F010C941F010C941F010C941F015C
S11300A00C941F010C941F010C941F010C941F014C
S11300B00C941F010C941F010C941F010C941F013C
S11300C00C941F010C941F010C941F010C941F012C
S11300D00C941F010C941F010C941F010C941F011C
S11300E00C941F010C941F010C941F010C941F010C
S11300F00C941F010C941F010C941F010C941F01FC
S11301000C941F010C941F010C941F010C941F01EB
S11301100C941F010C941F010C941F010C941F01DB
S11301200C941F010C941F010C941F010C941F01CB
S11301300C941F010C941F010C941F010C941F01BB
S11301400C941F010C941F010C941F010C941F01AB
S11301500C941F010C941F010C941F010C941F019B
S11301600C941F010C941F010C941F010C941F018B
S11301700C941F010C941F010C941F010C941F017B
S11301800C941F010C941F010C941F010C941F016B
S11301900C941F010C941F010C941F010C941F015B
S11301A00C941F010C941F010C941F010C941F014B
S11301B00C941F010C941F010C941F010C941F013B
S11301C00C941F010C941F010C941F010C941F012B
S11301D00C941F010C941F010C941F010C941F011B
S11301E00C941F010C941F010C941F010C941F010B
S11301F00C941F010C941F010C941F0111241FBEA9
S1130200CFEFCDBFDFE3DEBF00E00CBF11E2A0E023
S1130210B0E2E8E0FAE000E00BBF02C007900D9204
S1130220A030B107D9F723E2A0E0B1E201C01D92EA
S1130230A133B207E1F70E9480010C9402050C94EB
S11302400000EF92FF920F93CF93DF93CDB7DEB709
S11302509A01EDB6FEB6FA0132964DB75EB74E1B63
S11302605F0B4DBF5EBF4F5F5F4FADB7BEB711961B
S11302708C93DA0111961C92119733977CF0FB0151
S11302801296620F731F81918D938FE493EC019703
S1130290F1F700C00000E617F707A9F72E5F00E0AA
S11302A060EA8FE091E20E949A02E6E1F3E2808143
S11302B08111FDCFEDBEFEBEDF91CF910F91FF9076
S11302C0EF9008950F93CF93DF931F921F92CDB7B2
S11302D0DEB789831A82062F22E0AE014F5F5F4F9B
S11302E060EA8FE091E20E949A02E6E1F3E2808103
S11302F08111FDCF0F900F90DF91CF910F91089551
S1130300E0E4F6E088E0818384E0828341E060EA0F
S113031078E080E091E20E949004E0910021F09165
S1130320012183E0858383818F7C80618383A0EABC
S1130330B8E08CE016968C93169717961C928481DD
S11303408061848384818860848323E640E460E858
S113035074E08FE091E20E948902E0EAF0E0828199
S11303608160828378944FE050E060E070E282E044
S11303700E9421018FE493EC0197F1F700C0000083
S11303806FE070E082E00E9462019FE32DE083E071
S1130390915020408040E1F700C00000E4CF1F925C
S11303A00F920FB60F9211240BB60F922F933F9317
S11303B04F935F936F937F938F939F93AF93BF9369
S11303C0EF93FF938FE091E20E948203FF91EF91FC
S11303D0BF91AF919F918F917F916F915F914F9159
S11303E03F912F910F900BBE0F900FBE0F901F9057
S11303F018951F920F920FB60F9211240BB60F92FD
S11304002F933F934F935F936F937F938F939F9318
S1130410AF93BF93EF93FF9388E193E20E9461044B
S1130420FF91EF91BF91AF919F918F917F916F91C8
S11304305F914F913F912F910F900BBE0F900FBE84
S11304400F901F9018951F920F920FB60F921124C0
S11304500BB60F922F933F934F935F936F937F93BA
S11304608F939F93AF93BF93EF93FF9380E091E2B9
S11304700E94B70480E091E20E94A304882331F033
S113048080E091E20E94AB04682F02C060E070E05B
S113049080E091E20E94E604FF91EF91BF91AF9159
S11304A09F918F917F916F915F914F913F912F9188
S11304B00F900BBE0F900FBE0F901F9018951F92B8
S11304C00F920FB60F9211240BB60F922F933F93F6
S11304D04F935F936F937F938F939F93AF93BF9348
S11304E0EF93FF9380E091E20E94CC04FF91EF919F
S11304F0BF91AF919F918F917F916F915F914F9138
S11305003F912F910F900BBE0F900FBE0F901F9035
S11305101895FC01608371834863DB0111964C9349
S1130520A081B18115962C930190F081E02D81E09A
S113053084830895EF92FF920F93CF93DF93EC019E
S1130540FC01E95FFD4F808181113DC081E0808322
S1130550319610826A832223A1F07A016FEF620F31
S113056070E06F5F7F4F640F751FFA01DF01AE19F2
S1130570BF099191AC0FBD1F13969C93E617F70723
S1130580A9F7FE01ED5FFD4F2083DE01AC5FBD4F97
S11305900C9311961C9211961C928081882331F041
S11305A08A81E881F981868381E010C0FE01EC5FD5
S11305B0FD4F8081882349F08A818160E881F98137
S11305C0868381E003C080E001C081E0DF91CF91A8
S11305D00F91FF90EF900895DC01ED91FC9111973C
S11305E0248122FF05C034E0A85FBD4F3C9305C0C1
S11305F033E0DC01A85FBD4F3C9328602483FC01F9
S1130600E95FFD4F10820895CF93DF93FC01ED5F06
S1130610FD4F308131964081DC01ED91FC912481C4
S113062024FF0AC023E02383FC01E85FFD4F25E09B
S113063020833197108222C0DC01AB5FBD4F2C9127
S1130640231750F42C91EC01C20FD11D8B818783A9
S11306508C918F5F8C9312C0DC01AA5FBD4F2C91EB
S1130660241718F481EA868309C023E02383FC015C
S1130670E85FFD4F21E0208331971082DF91CF9115
S113068008950F931F93CF93DF93EC018C010A5FBE
S11306901D4FF8018081E881F9816781F80180812B
S11306A0FE01E80FF11DED5FFE4F6083F8018081CC
S11306B08F5F808380E091E20E94E60487E893E103
S11306C00197F1F700C00000FE01EC5FFD4F90813F
S11306D0F8018081891728F4E881F98182E0838315
S11306E00CC0E881F98187E08383FE01E85FFD4F58
S11306F081E08083C95FDD4F1882DF91CF911F9124
S11307000F910895CF93DF93EC01E881F9818481FF
S1130710982F9C7021F0CE010E94EC0219C086FF34
S113072004C0CE010E94040313C0882324F4CE0124
S11307300E9441030DC06AE780E091E20E94E60452
S1130740FE01E85FFD4F86E08083C95FDD4F1882BC
S1130750DF91CF910895FC01808D882351F0A08111
S1130760B18182E019968C9386E0878B168A108E6D
S1130770089581E0868B178AA081B18118968C91A7
S113078018978B7F18968C93148A158A0190F081A0
S1130790E02D83E081870895FC01A081B181189642
S11307A08C9118978B7F18968C93A081B1811A969F
S11307B08C911A9780641A968C9381E0878B168AA1
S11307C00895CF93DF93FC01A081B18118968C9199
S11307D01897846018968C938489883058F5EF01B3
S11307E00190F081E02D64858C89FE01E80FF11DF4
S11307F0648380E091E20E94E6048FE493EC019725
S1130800F1F700C00000EA81FB8119958C898F5FA4
S11308108C8B888D882349F0E881F98182E0818777
S113082086E08F8B1E8A188E0DC0E881F98183E0E3
S1130830818708C0A081B18186E019968C9382E0FB
S1130840878B168ADF91CF910895FC0185898823CF
S113085071F0A081B1811A968C911A9784FF07C018
S113086082E019968C9381E0878B168A0895858996
S1130870883098F48589DF01A80FB11D1C968C91EE
S1130880A081B1811C968C9385898F5F858B0190A3
S1130890F081E02D83E081870895A081B18182E019
S11308A019968C93878B168A0895DC01ED91FC913F
S11308B0228521FF03C00E94250408950E94E103BC
S11308C00895FC01A081B1811A968C9182FF06C023
S11308D0148A158A84E0878B168A089583FF06C0DC
S11308E0148A158A83E0878B168A0895282F20742A
S11308F0982F9174913421F4CF010E94AB03089591
S1130900222321F0CF010E94CC030895882324F4EC
S1130910CF010E945504089585E0878B168A0895B7
S1130920FC016083718342831486138616861586C0
S11309300895FC01958526859F5F937081E092134D
S113094001C080E00895FC012385948581E029138A
S113095001C080E00895FC018485DF01A80FB11D6A
S113096013968C9194859F5F937094870895FC01EE
S113097093859F5F93708485A081B1812C91981792
S113098049F08385DF01A80FB11D13962C9393873B
S113099081E0089580E00895FC019685858598138B
S11309A007C00190F081E02D83818C7F83830895BB
S11309B08685DF01A80FB11D17968C91A081B181A6
S11309C08C9386858F5F8370868708951F93CF935A
S11309D0DF93EC01162F0E949904882379F08D850A
S11309E0FE01E80FF11D17838F5F83708D87E88107
S11309F0F98183818C7F9A81892B8383DF91CF91C5
S10B0A001F910895F894FFCF43
S1130A08616476697479494954426F6D6261790009
S1130A1800000000000000000000000000000000CA
S1130A2800000000000000000000000000000000BA
S1130A3800000000000000000000000000000000AA
S1130A48000000000000000000000000000000009A
S1130A58000000000000000000000000000000008A
S1130A68000000000000000000000000000000007A
S1130A78000000000000000000000000000000006A
S1130A88000000000000000000000000000000005A
S1130A98000000000000000000000000000000004A
S1130AA8000000000000000000000000000000003A
S1130AB8000000000000000000000000000000002A
S1130AC8000000000000000000000000000000001A
S1130AD8000000000000000000000000000000000A
S1130AE800000000000000000000000000000000FA
S1130AF800000000000000000000000000000000EA
S9030000FC
